:020000040800F2
:100000000042002045010008B94A0008BB4A000828
:10001000BF4A0008C34A0008C74A000800000000A1
:10002000000000000000000000000000CB4A0008B3
:10003000CD4A000800000000CF4A0008D14A00085D
:100040005F0100085F0100085F0100085F01000810
:100050005F0100085F0100085F0100085F01000800
:100060005F0100085F0100085F0100085F010008F0
:100070005F0100085F0100085F0100085F010008E0
:100080005F0100085F0100085F0100085F010008D0
:100090005F0100085F0100085F0100085F010008C0
:1000A0005F0100085F0100085F0100085F010008B0
:1000B00037330008513300085F0100085F01000872
:1000C0005F0100085F0100085F0100085F01000890
:1000D0005F01000873370008213200085F01000843
:1000E0005F0100085F0100085F0100085F01000870
:1000F0005F0100085F0100085F0100085F01000860
:100100005F0100085F0100085F0100085F0100084F
:100110005F0100085F0100085F0100085F0100083F
:100120005F0100085F0100085F0100085F0100082F
:10013000DFF80CD004F0E8FE004800475D400008FE
:10014000004200200648804706480047FEE7FEE7D9
:10015000FEE7FEE7FEE7FEE7FEE7FEE7FEE7FEE777
:1001600047020008310100080CB500200190009002
:100170006C48006840F480306A49086000BF6948F4
:10018000006800F4003000900198401C0190009835
:1001900018B90198B0F5A06FF1D16248006800F479
:1001A000003010B10120009001E000200090009884
:1001B000012843D15C48006840F010005A490860AB
:1001C0000846006820F0030008600846006840F018
:1001D0000200086053484068524948600846406839
:1001E00048600846406840F48060486008464068BF
:1001F00020F47C1048600846406840F4E8104860ED
:100200000846006840F08070086000BF45480068FC
:1002100000F000700028F9D04248406820F0030048
:10022000404948600846406840F00200486000BF0E
:100230003C48406800F00C000828F9D10CBD10B50E
:10024000FFF792FF10BD10B53648006840F001007E
:1002500034490860084640683449084031494860DC
:1002600008460068324908402E4908600846006880
:1002700020F4802008600846406820F4FE004860B2
:100280004FF41F008860FFF7DAFF4FF00060294944
:10029000086010BD10B5002100200022214B5B68D2
:1002A00003F00C0121B1042906D0082928D107E068
:1002B000214B224C236027E01F4B204C236023E07E
:1002C000184B5B6803F47010164B5B6803F48032C4
:1002D000022303EB904022B9194B4343174C236090
:1002E0000DE0104B5B6803F4003323B1144B434320
:1002F000124C236003E0104B4343104C236003E097
:100300000D4B0E4C236000BF00BF064B5B68C3F370
:1003100003130C4CE15C094B1B68CB40074C23607A
:1003200010BD000000100240002002400000FFF855
:10033000FFFFF6FE08ED00E000127A00000000204A
:1003400000093D000400002031490143314A116099
:10035000704770B5002100230F22C47804B32D4CE0
:10036000246804F4E064C4F5E064210AC1F10403E4
:10037000CA40447804FA03F1847814402143090107
:10038000254C0678A155047804F01F050124AC40E3
:1003900005786D11AD0005F1E025C5F8004109E0D3
:1003A000047804F01F050124AC401C4D067876113A
:1003B00045F8264070BD1A4A0A400243154B1B1FE0
:1003C0001A60704739B1134A121D12680243114B6B
:1003D0001B1D1A6006E00F4A121D126882430D4B66
:1003E0001B1D1A607047042808D14FF0E0210969ED
:1003F00041F004014FF0E022116107E04FF0E021ED
:10040000096921F004014FF0E022116170470000FA
:100410000000FA050CED00E000E400E080E100E0FF
:1004200080FFFF1F10B50446FA48844208D101211D
:10043000401500F075FD0021601500F071FD17E01A
:10044000F548844208D10121001500F069FD002122
:10045000201500F065FD0BE0F048844208D1012131
:10046000C80300F05DFD00214FF4004000F058FD8E
:1004700010BD30B50246002000235068E84C2040F3
:100480000D790C6844EA0524204350609068E54CDF
:100490002040D1E902542C434D7944EA45042043DD
:1004A0009060D06A20F470000C7C641EE4B2234398
:1004B00040EA0350D06230BD0021016001714171FA
:1004C0008160C16001210174704721B1826842F0EE
:1004D0000102826003E0826822F0010282607047BC
:1004E00021B1826842F48072826003E0826822F463
:1004F00080728260704710B50023CBB21AB1446895
:100500001C43446002E044689C43446010BD816821
:1005100041F0080181607047014600208A6802F0BE
:1005200008020AB1012000E000207047816841F014
:10053000040181607047014600208A6802F00402CD
:100540000AB1012000E00020704721B1826842F426
:10055000A002826003E0826822F4A00282607047F9
:10056000014600208A6802F480020AB1012000E0FE
:100570000020704710B50A4600210023416821F48D
:100580006041531E41EA4331416010BD21B14268D0
:1005900042F40062426003E0426822F4006242607A
:1005A0007047F0B504460D4600200021092D11DDED
:1005B000E068A5F10A0606EB4607072606FA07F1EA
:1005C0008843A5F10A0606EB460603FA06F108433E
:1005D000E0600CE0206905EB4507072606FA07F105
:1005E000884305EB450603FA06F108432061072A14
:1005F0000FDA606B561E06EB86071F2606FA07F118
:100600008843561E06EB860605FA06F1084360632A
:1006100022E00D2A0FDA206BD61F06EB86071F2675
:1006200006FA07F18843D61F06EB860605FA06F19F
:100630000843206310E0E06AA2F10D0606EB86078E
:100640001F2606FA07F18843A2F10D0606EB86067F
:1006500005FA06F10843E062F0BD21B1826842F478
:100660008012826003E0826822F480128260704708
:100670000146C86C80B2704766484C3000687047CD
:1006800021B1426842F48062426003E0426822F491
:1006900080624260704721B1426842F480524260F9
:1006A00003E0426822F48052426070470A4600210B
:1006B000816821F4E04111438160704721B1826873
:1006C00042F40042826003E0826822F400428260C9
:1006D000704721B1826842F40212826003E08268AE
:1006E00022F4021282607047014600208A6802F4F8
:1006F00000120AB1012000E000207047F0B5044666
:100700001546002000220026092911DDE068A1F12C
:100710000A0707EB470C072707FA0CF29043A1F1F1
:100720000A0707EB470703FA07F21043E0600CE003
:10073000206901EB410C072707FA0CF2904301EB0B
:10074000410703FA07F210432061A06BC0F3015682
:10075000EF1C06F1010CA7EB0C0707EB870C1F271A
:1007600007FA0CF29043EF1C06F1010CA7EB0C0703
:1007700007EB870701FA07F21043A063F0BD10B53D
:100780000A4600210023816B21F44011531E41EAE7
:100790000351816310BD08B5002300930090009BB6
:1007A0000B440093009B1A6008BD08B50246002068
:1007B0000090009201F12800009B184400900098DE
:1007C000006880B208BD0A4600214168164B1940F6
:1007D0001143416070474162826270470A460021BE
:1007E000416821F01F0111434160704740B1094940
:1007F0000831096841F40001064A0832116007E037
:1008000004490831096821F40001024A08321160E4
:10081000704700000024014000280140003C0140D6
:10082000FFFEF0FFFDF7F1FFFFFD3FFF0246002056
:1008300013680B400BB1012000E000207047CA4351
:100840000260704770B502460020002300240B129E
:100850005568CEB205EA060415681D4015B10CB105
:10086000012000E0002070BD00220A12D343036083
:100870007047000010B50446CC48844208D10121DD
:10088000042000F04DFB0021042000F049FB46E06D
:10089000C748844208D10121082000F041FB002113
:1008A000082000F03DFB3AE0C248844208D1012113
:1008B000102000F035FB0021102000F031FB2EE06D
:1008C000BD48844208D10121202000F029FB0021ED
:1008D000202000F025FB22E0B848844208D1012105
:1008E000402000F01DFB0021402000F019FB16E025
:1008F000B348844208D10121802000F011FB00217F
:10090000802000F00DFB0AE0AE48844207D10121AF
:10091000801500F005FB0021A01500F001FB10BDC3
:1009200010B50121084600F0FBFA0021012000F07B
:10093000F7FA10BD2DE9F0410246002500260020FF
:1009400000230024002791F803C00CF00F0591F854
:1009500003C00CF0100CBCF1000F03D091F802C0E2
:100960004CEA050591F800C0BCF1000F31D01468C5
:1009700000202BE04FF0010C0CFA00F3B1F800C09E
:100980000CEA03069E4220D183004FF00F0C0CFAB4
:1009900003F7BC4305FA03FC4CEA040491F803C0D6
:1009A000BCF1280F06D14FF0010C0CFA00FCC2F884
:1009B00014C00AE091F803C0BCF1480F05D14FF014
:1009C000010C0CFA00FCC2F810C0401C0828D1D35E
:1009D0001460B1F800C0BCF1FF0F34DD5468002092
:1009E0002EE000F1080C4FF0010808FA0CF3B1F802
:1009F00000C00CEA03069E4221D183004FF00F0C89
:100A00000CFA03F7BC4305FA03FC4CEA040491F822
:100A100003C0BCF1280F05D100F1080C08FA0CF84E
:100A2000C2F8148091F803C0BCF1480F07D100F15F
:100A3000080C4FF0010808FA0CF8C2F81080401CAE
:100A40000828CED35460BDE8F0814FF6FF710180D5
:100A5000022181700421C170704702460020936812
:100A60000B400BB1012000E0002070470146886870
:100A700080B2704702460020D3680B400BB10120C2
:100A800000E0002070470146C86880B270470161ED
:100A90007047416170470AB1016100E041617047F0
:100AA000C16070474FF480320A4382618161826184
:100AB00082698269704702460020434B18684FF6EE
:100AC0008073184040EA021008433F4B186070479B
:100AD0003E49C8617047F0B50A4600230024002152
:100AE000002500F00046B6F1004F02D1364EF16904
:100AF00001E0354E7168C0F3034583B200F440163F
:100B0000B6F5401F08D121F070612F4E766826F0AF
:100B100070662D4F7E6012E000F48016B6F5801FDF
:100B200006D1032606FA05F4A14341F0706106E000
:100B3000460D360103FA06F6B14341F0706122B169
:100B4000460D360103FA06F6314300F00046B6F1D1
:100B5000004F02D11C4EF16101E01B4E7160F0BDEF
:100B600030B500228B071C0F0F2303FA04F2164B3B
:100B700008338C1053F824309343134C08348D10F1
:100B800044F8253023468C1053F824308C07240F6A
:100B900000FA04F423430C4C08348D1044F825303B
:100BA00030BD0A49DC310860704700000008014090
:100BB000000C0140001001400014014000180140E9
:100BC000001C0140002001400000014000002042C4
:100BD0000E49086070470D49486070470B498860AE
:100BE00070474AF6AA200949086070474CF6CC4085
:100BF00006490860704701460020044AD2680A404E
:100C00000AB1012000E000207047000000300040E1
:100C1000DF48006840F00100DD4908600846406890
:100C2000DC490840DA49486008460068DA4908406B
:100C3000D74908600846006820F48020086008460C
:100C4000406820F4FE0048604FF41F008860704741
:100C5000CF49096821F48031CD4A116011460968F5
:100C600021F480211160B0F5803F03D0B0F5802FD2
:100C70000ED106E0C649096841F48031C44A1160CA
:100C800007E0C349096841F4A021C14A116000E0AE
:100C900000BF00BF704710B50146002200230020AE
:100CA0004A11012A02D1BA4C236806E0022A02D175
:100CB000B74C236A01E0B64C636A01F01F020124BD
:100CC00094401C400CB1012000E0002010BD38B55C
:100CD000002000900024002500BF3120FFF7DBFF3B
:100CE00005460098401C00900098B0F5A06F01D018
:100CF000002DF2D03120FFF7CEFF08B1012400E033
:100D00000024204638BD01460020A14A106820F08A
:100D1000F80040EAC10010607047A04908607047C1
:100D2000024600209A4B586820F47C1042EA0103E6
:100D30001843974B586070479849086670470146BA
:100D40000020934A506820F0030008435060704729
:100D50008F48406800F00C007047014600208C4A24
:100D6000506820F0F00008435060704701460020B2
:100D7000874A506820F4E06008435060704701469D
:100D80000020834A506820F4605040EAC10050605F
:100D9000704729B17E4A527A02437D4B5A7204E071
:100DA0007B4A527A82437A4B5A7270477B49D831D8
:100DB0000860704701460020754A506820F44040A2
:100DC0000843506070470021714A20321170704A08
:100DD00082F82010012802D004280AD104E0012161
:100DE0006B4A2032117005E00521694A20321170EA
:100DF00000E000BF00BF7047694908607047644960
:100E0000096A0143624A11627047654944390860C2
:100E1000704730B500210022002400235C4D6D682E
:100E200005F00C0121B1042905D0082923D105E0E2
:100E30005C4D056022E05B4D05601FE0544D6D6820
:100E400005F47012524D6D6805F48034022505EBEF
:100E500092421CB9544D554305600BE04C4D6D68F2
:100E600005F400351DB1504D5543056002E04D4D70
:100E70005543056002E04B4D056000BF00BF444D87
:100E80006D6805F0F0010909484D6B5C0568DD40AF
:100E900045603F4D6D6805F4E061090A434D6B5CA8
:100EA0004568DD4085603A4D6D6805F46051C90ABA
:100EB0003E4D6B5C4568DD40C560354D6D6805F4A1
:100EC0004041890B3A4D6B5CC568B5FBF3F5056194
:100ED00030BD29B12E4A526902432D4B5A6104E0BC
:100EE0002B4A526982432A4B5A61704729B1284ADA
:100EF00092690243264B9A6104E0254A9269824333
:100F0000234B9A61704729B1214AD2690243204B91
:100F1000DA6104E01E4AD26982431D4BDA617047F0
:100F200029B11B4AD2680243194BDA6004E0184A1F
:100F3000D2688243164BDA60704729B1144A1269AD
:100F40000243134B1A6104E0114A12698243104BA9
:100F50001A61704712494039086070470F49C864E8
:100F600070470B49C87170470948406A40F080706B
:100F700007494862704701460020054A92680A40C6
:100F80000AB1012000E000207047014988727047D3
:100F9000001002400000FFF8FFFFF6FE0000424292
:100FA0008004424200127A0000093D001400002033
:100FB0002400002010B50446FE48844208D10121D7
:100FC000C014FFF7ADFF0021E014FFF7A9FFC4E054
:100FD000B4F1804F08D101210846FFF7AEFF002190
:100FE0000120FFF7AAFFB8E0F348844208D10121AD
:100FF0000220FFF7A2FF00210220FFF79EFFACE0D6
:10100000EE48844208D101210420FFF796FF002119
:101010000420FFF792FFA0E0E948844208D10121B3
:101020000820FFF78AFF00210820FFF786FF94E0E1
:10103000E448844208D101211020FFF77EFF0021FF
:101040001020FFF77AFF88E0DF48844208D10121B1
:101050002020FFF772FF00212020FFF76EFF7CE0C9
:10106000DA48844208D101214014FFF759FF0021DA
:101070006014FFF755FF70E0D548844209D1012183
:10108000C804FFF74DFF00214FF40020FFF748FF91
:1010900063E0D048844209D101210805FFF740FFF1
:1010A00000214FF48010FFF73BFF56E0CA4884420E
:1010B00009D101214805FFF733FF00214FF400104B
:1010C000FFF72EFF49E0C548844208D101214020A6
:1010D000FFF733FF00214020FFF72FFF3DE0C0481E
:1010E000844208D101218020FFF727FF00218020C2
:1010F000FFF723FF31E0BB48844208D1012180156E
:10110000FFF71BFF0021A015FFF717FF25E0B648EA
:10111000844209D101210804FFF702FF00214FF4A6
:101120008030FFF7FDFE18E0B048844209D101216C
:101130004804FFF7F5FE00214FF40030FFF7F0FE02
:101140000BE0AB48844208D101218804FFF7E8FE98
:1011500000214FF48020FFF7E3FE10BD002202883B
:10116000944B98420ED0994B98420BD0B0F1804FDF
:1011700008D0914B984205D0904B984202D0904BAA
:10118000984204D14FF68F731A404B881A438D4B07
:10119000984207D08C4B984204D04FF6FF431A4038
:1011A000CB881A4302808B8883850B880385814B0B
:1011B00098420BD0854B984208D08B4B984205D073
:1011C0008A4B984202D08A4B984201D10B7A03860F
:1011D00001238382704770B5002400220023058C10
:1011E0004FF6FE7635400584028C8388048B4FF6DB
:1011F0008F752C40B51E2C400D882C43751E2A403F
:101200000D892A434D882A436A4DA8420BD06F4D61
:10121000A84208D0744DA84205D0744DA84202D00F
:10122000734DA84213D14FF6F7752A404D892A43D2
:101230004FF6FB752A408D882A434FF6FF652B40F9
:101240004FF6FF552B408D892B43CD892B4383804F
:101250000483CD888586028470BD70B50024002289
:101260000023058C4FF6EF7635400584028C838889
:10127000048B48F6FF752C404FF6FF452C400D8837
:101280004FF6FF7606EA05252C434FF6DF752A4018
:101290000D8906EA05152A434D8806EA05152A43F5
:1012A000444DA84202D0494DA8421DD14FF67F754A
:1012B0002A404D894FF6FF7606EA05152A434FF678
:1012C000BF752A408D8806EA05152A434FF6FF357B
:1012D0002B404FF2FF752B408D8906EA85052B4385
:1012E000CD8906EA85052B4383800483CD88058755
:1012F000028470BD70B5002400220023058C4FF6D7
:10130000FF6635400584028C8388848B4FF68F7589
:101310002C404FF6FC752C400D882C434FF6FF55A2
:101320002A400D894FF6FF7606EA05252A434D88A7
:1013300006EA05252A431F4DA84202D0234DA842A4
:101340001DD14FF2FF752A404D894FF6FF7606EA10
:1013500005252A434FF6FF352A408D8806EA0525E4
:101360002A434EF6FF752B404DF6FF752B408D89B5
:1013700006EA05152B43CD8906EA05152B43838024
:101380008483CD888587028470BD70B500220023D8
:101390000024058C4EF6FF7635400584038C848846
:1013A000828B48F6FF752A404FF6FF452A400D888C
:1013B00020E00000002C0140000400400008004034
:1013C000000C0040001000400014004000340140B8
:1013D000004C014000500140005401400018004002
:1013E000001C00400020004000400140004401403B
:1013F000004801404FF6FF7606EA05252A434DF6E0
:10140000FF752B400D8906EA05352B434D8806EA0A
:1014100005352B43FA4DA84202D0FA4DA84208D117
:101420004BF6FF752C408D894FF6FF7606EA851541
:101430002C4384808283CD88A0F84050038470BD03
:10144000828B4FF2FF331A408283828B4FF6FF73F9
:1014500003EA01231A4382837047F0B50C46154610
:10146000002200210026078C4EF6FF7C07EA0C07BD
:101470000784828B018C4FF6FF7707EA043640F62B
:10148000FF473A404FF6FF7707EA05273A434FF602
:10149000FF7707EA03373A43D94FB8420ED0D94F06
:1014A000B8420BD0B0F1804F08D0D74FB84205D02A
:1014B000D64FB84202D0D64FB84206D14DF6FF778C
:1014C000394046F48057394305E047F6FF57394025
:1014D00044F48057394382830184F0BD828B4FF6F8
:1014E000F3731A408283828B0A4382837047F0B57C
:1014F0000C461546002200210026078C4FF6FF6C93
:1015000007EA0C070784828B018C4FF6FF7707EA06
:1015100004264FF60C773A404FF6FF7707EA031799
:101520002F433A43B64FB8420ED0B64FB8420BD015
:10153000B0F1804F08D0B44FB84205D0B34FB84295
:1015400002D0B34FB84206D14FF6FF57394046F4A8
:101550008077394305E04FF2FF57394044F48077F4
:10156000394382830184F0BD028B4FF2FF331A406E
:101570000283028B4FF6FF7303EA01231A430283AF
:101580007047F0B50C461546002200210026078C56
:101590004FF6EF7C07EA0C070784028B018C4FF6AD
:1015A000FF7707EA041640F6FF473A404FF6FF7709
:1015B00007EA03373A434FF6FF7707EA05273A432E
:1015C0008F4FB8420ED08F4FB8420BD0B0F1804F42
:1015D00008D08D4FB84205D08C4FB84202D08C4F06
:1015E000B84206D14FF6DF77394046F0100739434D
:1015F00005E04FF65F77394044F010073943028326
:101600000184F0BD028B4FF6F3731A400283028B04
:101610000A4302837047F0B50C46154600220021AC
:10162000068C4FF6FE773E400684028B018C4FF607
:101630000C7632407E1C06EA03162E433243704E6F
:10164000B0420ED06F4EB0420BD0B0F1804F08D0F8
:101650006D4EB04205D06D4EB04202D06C4EB042DD
:1016600006D14FF6FD76314044F00106314305E0E6
:101670004FF6F576314044F0010631430283018490
:10168000F0BD70B505460C465D4885420ED05D48FC
:1016900085420BD0B5F1804F08D05B48854205D01C
:1016A0005A48854202D05A48854200D100E000BF26
:1016B000208850B92389A28861882846FFF7ABFFAC
:1016C000E1882846FFF79EFF25E0208804280AD1FC
:1016D0002389A28861882846FFF753FFE1882846BE
:1016E000FFF742FF17E0208808280AD12389A28843
:1016F00061882846FFF7FBFEE1882846FFF7EEFEEB
:1017000009E02389A28861882846FFF7A6FEE188C0
:101710002846FFF795FE70BD2DE9F04105460C46C1
:1017200000260127608808B9022600E00026A0886C
:10173000012801D1022700E001272088A0B92389D0
:10174000A28861882846FFF766FFE1882846FFF7F0
:1017500059FF23893A4631462846FFF712FFE188B0
:101760002846FFF701FF13E02389A28861882846F5
:10177000FFF707FFE1882846FFF7F6FE23893A4680
:1017800031462846FFF747FFE1882846FFF73AFF32
:10179000BDE8F0810A884B881A438B881A43CB88AE
:1017A0001A430B891A434B891A438B891A43A0F8B1
:1017B000442070474FF6FF71818000210180C18075
:1017C0004180017270470021018041808180C18089
:1017D000018141818181C181704700210180418067
:1017E000012181800021C180018170470021018099
:1017F00041808180C18001814181818170470000E9
:10180000002C01400034014000040040000800406A
:10181000000C004021B1028842F00102028004E085
:1018200002884FF6FE731A400280704731B1B0F85B
:10183000442042F40042A0F8442005E0B0F84420DF
:10184000C2F30E02A0F8442070471AB183890B43FB
:10185000838102E083898B43838170478182704753
:1018600041EA0203A0F8483070471AB183890B435C
:10187000838102E083898B438381704701894FF61E
:10188000F8721140018170470A46002101894FF624
:101890008F73194011430181704730B504460D46DE
:1018A00029462046FFF7F0FF208940F007002081FD
:1018B00030BD2DE9F04104460D4616461F46602D09
:1018C00006D13B46012231462046FFF75AFE05E08D
:1018D0003B46012231462046FFF79DFE2946204621
:1018E000FFF7D2FF208940F007002081BDE8F0819A
:1018F00030B50C4600210189C9B24FF6FF7505EAE3
:101900000325154325432943018130BD2DE9F041CD
:1019100005460E4617469846002443463A46314649
:101920002846FFF7E5FF2C894FF6F870044044F095
:1019300007044FF68F70044044F070042C81BDE81A
:10194000F081F0B504460D4616461F463B4632462A
:1019500029462046FFF7CCFF208940F480402081B3
:10196000F0BD0185828270470A46002101884FF64A
:101970008F731940114301807047F0B50C4615462E
:101980001E460021002200230189028B038C4FF6A2
:10199000F877394021434FF6FC473A4040F20117AF
:1019A0003A434FF6DD773B404FF6FF7707EA0617DD
:1019B0002F433B43018102830384F0BD0A4600218B
:1019C000018B4FF68F7319401143018370470A460C
:1019D0000021018B48F6FF7319404FF6FF7303EAAD
:1019E00002231943018370470A460021818B4FF679
:1019F0008F7319401143818370470A460021818B00
:101A000048F6FF7319404FF6FF7303EA02231943A8
:101A10008183704721B1028842F08002028004E095
:101A200002884FF67F731A400280704721B1828886
:101A300042F00402828004E082884FF6FB731A4071
:101A40008280704721B1828842F00802828004E0DF
:101A500082884FF6F7731A408280704721B18288DE
:101A600042F00102828004E082884FF6FE731A4041
:101A7000828070470A460021018B4FF6F7731940A8
:101A80001143018370470A460021018B4FF2FF7317
:101A900019404FF6FF7303EA02231943018370478D
:101AA0000A460021818B4FF6F77319401143818359
:101AB00070470A460021818B4FF2FF7319404FF6A1
:101AC000FF7303EA02231943818370470A4600210A
:101AD000018B4FF6FB7319401143018370470A468F
:101AE0000021018B4FF6FF3319404FF6FF7303EAD5
:101AF00002231943018370470A460021818B4FF668
:101B0000FB7319401143818370470A460021818B82
:101B10004FF6FF3319404FF6FF7303EA02231943D0
:101B2000818370470A460021018B4FF67F7319406D
:101B30001143018370470A460021018BC1F30E0156
:101B40004FF6FF7303EA02231943018370470A46E5
:101B50000021818B4FF67F731940114381837047B9
:101B60000A460021818BC1F30E014FF6FF7303EA91
:101B700002231943818370470A460021018C4FF6E6
:101B8000FD7319401143018470470A460021018CFE
:101B90004FF6F77319401143018470470A4600213C
:101BA000018C4FF6DF7319404FF6FF7303EA0213FF
:101BB0001943018470470A460021018C4FF67F7358
:101BC00019404FF6FF7303EA02131943018470476B
:101BD0000A460021018C4FF6FF5319404FF6FF7360
:101BE00003EA02231943018470470A460021018C4D
:101BF0004FF2FF7319404FF6FF7303EA02231943B4
:101C0000018470470A460021018C4DF6FF7319408C
:101C10004FF6FF7303EA023319430184704730B56E
:101C2000002301248C40A3B2048C9C430484048CC4
:101C300002FA01F5ADB22C43048430BD30B5002367
:101C400004248C40A3B2048C9C430484048C02FAC8
:101C500001F5ADB22C43048430BD70B503460020BD
:101C600000241846183001258D40ACB21D8CA543C8
:101C70001D8409B1082909D100EB6100056825F030
:101C8000700505600568154305600EE00D1FC5F37E
:101C90004E052844056825F4E045056005684FF6C3
:101CA000FF7606EA02263543056070BD21B1028841
:101CB00042F00202028004E002884FF6FD731A40EF
:101CC0000280704721B1028842F00402028004E0E1
:101CD00002884FF6FB731A400280704721B1828858
:101CE00042F08002828004E082884FF67F731A40BF
:101CF0008280704702884FF6F7731A40028002888C
:101D00000A430280704782884FF68F731A408280A0
:101D100082880A438280704702894FF6F8731A401E
:101D2000028102890A430281704702894FF67F735C
:101D30001A40028102890A430281704781847047F8
:101D4000818570478186704701877047818770471A
:101D5000A0F84010704702884FF6FF431A400280F7
:101D600002880A43028070470146888E7047014608
:101D7000088F70470146888F70470146B1F84000D0
:101D800070470146888C70470146088D70470246AF
:101D90000020138A0B400BB1012000E000207047A7
:101DA000CA430282704730B5024600200023002457
:101DB000158A05EA0103958905EA010413B10CB1FE
:101DC000012000E0002030BDCA43028270470000BD
:101DD00010B50446FB48844209D101218803FFF76E
:101DE0009FF800214FF48040FFF79AF832E0F64860
:101DF000844209D101214804FFF79FF800214FF4E4
:101E00000030FFF79AF825E0F048844209D101211B
:101E10008804FFF792F800214FF48020FFF78DF837
:101E200018E0EB48844209D10121C804FFF785F886
:101E300000214FF40020FFF780F80BE0E5488442D2
:101E400008D101210805FFF778F800214FF4801030
:101E5000FFF773F810BD2DE9F04786B005460E4632
:101E60000024A24600BFA1460027B08900B100BFF0
:101E70002F462C8A4CF6FF700440F08804432C82D5
:101E8000AC894EF6F3100440B0883189084371895B
:101E900008430443AC81AC8A4FF6FF400440B0894C
:101EA0000443AC8201A8FEF7B4FFC648874202D1C2
:101EB000DDF810A001E0DDF80CA0A88900F40040D6
:101EC00040B10AEBCA0000EB0A1031684900B0FBD0
:101ED000F1F807E00AEBCA0000EB0A10316889004C
:101EE000B0FBF1F86420B8FBF0F004012009642194
:101EF00001FB1089A88900F4004040B1322000EBBA
:101F0000C900B0FBF1F000F00700044308E0322004
:101F100000EB09106421B0FBF1F000F00F00044366
:101F20002C8106B0BDE8F0874FF416510160002106
:101F30008180C18001810C21418100218181704714
:101F400010B502460020108A4FF2FF0318400B889C
:101F50004C8823438C882343CC8823431843108226
:101F600010BD0021018041808180C180704721B176
:101F7000828942F40052828104E082894DF6FF7327
:101F80001A4082817047F0B50346002400260025E0
:101F9000002040F66A17B94200D100BF1846C1F3CD
:101FA000421401F01F06012707FA06F5012C01D1A2
:101FB0000C3004E0022C01D1103000E014301AB1D2
:101FC00007682F43076002E00768AF430760F0BD72
:101FD0001AB1838A0B43838202E0838A8B43838214
:101FE0007047028A4FF6F0731A400282028A0A434F
:101FF0000282704782894FF2FF731A408281828980
:102000000A438281704721B1828942F002028281B3
:1020100004E082894FF6FD731A4082817047028A7C
:102020004FF6DF731A400282028A0A430282704727
:1020300021B1028A42F48042028204E0028A4BF615
:10204000FF731A4002827047C1F308028280704712
:1020500001468888C0F308007047818941F001017A
:1020600081817047028BD2B20283028B42EA012245
:1020700002837047028B02F47F420283028B0A4381
:102080000283704721B1828A42F02002828204E0FA
:10209000828A4FF6DF731A408282704721B1828AAA
:1020A00042F01002828204E0828A4FF6EF731A40F7
:1020B0008282704721B1828A42F00802828204E063
:1020C000828A4FF6F7731A408282704721B1828963
:1020D00042F40042828103E08289C2F30E028281CF
:1020E000704721B1828A42F40062828204E0828ACF
:1020F0004FF2FF731A4082827047828A4FF6FB7359
:102100001A408282828A0A438282704721B1828A7F
:1021100042F00202828204E0828A4FF6FD731A4086
:102120008282704702460020B1F5007F00D100BFD7
:1021300013880B400BB1012000E00020704701F430
:102140000072B2F5007F00D100BFCA430280704721
:1021500070B50246002400230025002040F66A16D0
:10216000B14200D100BFC1F3421501F01F030126A7
:1021700006FA03F3012D02D19689334006E0022DC1
:1021800002D1168A334001E0968A33400C120126B0
:1021900006FA04F41688344013B10CB1012000E0B3
:1021A000002070BD10B50022002340F66A14A14241
:1021B00000D100BF0A1201249440A3B2DC43048082
:1021C00010BD0000003801400044004000480040BD
:1021D000004C004000500040704710B5044604E039
:1021E00014F8010BB0490968884720780028F7D116
:1021F00010BD70B505460E46002404E0285DAA49CE
:1022000009688847641CB442F8DB70BD08B1A64970
:10221000086070470121A54A11700021A44A11806D
:10222000A4490988802907DAA2490A880988491C33
:10223000A04B1980A0498854704710B500209D49D3
:1022400008809E49087080219B4802F05BFC10BD0D
:102250009B480088401C9A4908809448007888B1BF
:1022600093480088401C92490880084600880A2844
:1022700008DD00208D490870012090490870002079
:102280008B4908808F48007868B18F4800888F4953
:102290000988884202DD01208D4908708A4800883B
:1022A000401C89490880704770B504460D46854832
:1022B000007880B9214687A002F0AAFEFFF7BDFF93
:1022C0002046FFF78AFF0A2095FBF0F07F4908803F
:1022D00001207C4908707E48007840B100207C498C
:1022E00008707849087078490880012070BD002086
:1022F000FCE770B504460D467248007880B9214667
:1023000074A002F085FEFFF798FF2046FFF765FFF7
:102310000A2095FBF0F06D4908800120694908709A
:102320006B48007810B96548007840B100206849D2
:1023300008706449087064490880012070BD00205D
:10234000FCE770B504460D465E48007880B921462A
:1023500060A002F05DFEFFF770FF2046FFF73DFF33
:102360000A2095FBF0F05949088001205549087072
:102370005748007810B95148007840B100205449BE
:1023800008705049087050490880012070BD002035
:10239000FCE770B505460C464A48007888B920210C
:1023A000284600F031FFFFF748FF2021284600F0C3
:1023B00011FF0A2094FBF0F04449088001204149B4
:1023C00008704348007810B93C48007840B10020BC
:1023D0003F4908703B4908703B490880012070BDA7
:1023E0000020FCE70021364A118000BF0A2190FB43
:1023F000F1F1334A12889142F8DC704701463148C6
:10240000007838B90A2091FBF0F0304A10800120A2
:102410002C4A10702E48007840B100202C4A1070D1
:10242000284A1070284A1080012070470020FCE7DD
:1024300010B54EF66020FFF7E1FF08B1002010BD97
:102440001E480078C0B1002400BF05E01A48015DB5
:1024500024A002F0DDFD641C164800888442F5DBF0
:10246000144801881448FFF7C4FEFFF7E6FE002079
:10247000154908800220E2E70120E0E710B5044694
:102480000E48007868B10C4917A002F0C1FD214642
:10249000094802F042FB08B1012010BD00200749A5
:1024A00008700020F9E70000280000202E0000201E
:1024B000300000202C000020B0000020320000205E
:1024C0003400002036000020380000203A000020B0
:1024D0003C000020756172742073656E643A20259B
:1024E000730D0A00256300007561727420726563C4
:1024F000763A2025730D0A0010B5F848007810B11F
:10250000012819D109E00121F548FEF7C0FAF34886
:102510000078401CF14908700FE04FF47A70FFF723
:102520006DFF40B10121EE48FEF7B3FA0020EB4900
:102530000870012010BD00E000BF00BF0020F9E7D7
:102540002DE9FC4781460D461646002700200090E5
:10255000019000248046E3A1484602F0DEFA0446DA
:1025600014B90020BDE8FC87641D00E0641C2078DD
:102570003028FBDB20783928F8DCA04600E0641C1A
:1025800020782C28FBD1A4EB08024146684602F0D3
:10259000A0FA684602F0E2FA0746AF4203DBB74210
:1025A00001DC0120DEE70020DCE710B5CB48007835
:1025B000032872D005DC48B1012826D002286DD14D
:1025C00042E0FE286BD0FF28F9D196E04FF47A71F3
:1025D000C6A0FFF769FEB8B1C6A0FFF74FFF40B134
:1025E0000020C5490870BD480078401CBB490870F0
:1025F0000AE0C14801780078401CBF4A10700A29DF
:1026000002DDFF20B549087082E04FF47A71BBA06B
:10261000FFF74AFEB8B1BCA0FFF730FF40B1002081
:10262000B5490870AD480078401CAC4908700AE014
:10263000B14801780078401CAF4A10700A2902DDC9
:10264000FF20A649087063E04FF47A71B2A0FFF74B
:102650002BFE08B3A7A0FFF711FF28B3B1A0FFF727
:102660000DFF58B1A44801780078401CA24A1070B0
:102670001E2924DDFF209949087020E01F220F2128
:10268000AB48FFF75DFF58B100209B4908709348A5
:102690000078401C9149087011E011E037E031E00A
:1026A000FF208E4908700AE0934801780078401CAA
:1026B000914A10701E2902DDFF208849087027E02A
:1026C0004FF47A719BA0FFF7EFFDA8B19CA0FFF734
:1026D000D5FE30B1002088490870FE207F4908707F
:1026E0000AE0854801780078401C834A10701E2952
:1026F00002DDFF20794908700AE000207749087060
:10270000FF2010BD002075490870FE20F9E700BFCA
:1027100000BF0020F5E710B5044670480078042893
:102720007ED007DC78B101282CD0022835D00328D0
:1027300072D151E0052870D006286FD0FE286ED0E7
:10274000FF28F5D13BE14FF47A7180A0FFF7ACFD93
:10275000B8B182A0FFF792FE40B100206649087030
:102760005E480078401C5D4908700AE062480178C4
:102770000078401C604A1070052902DDFF2057498F
:10278000087022E14FF4FA60FFF738FE20B1534899
:102790000078401C5149087017E14FF47A7171A01C
:1027A000FFF782FDB8B153A0FFF768FE40B10020EB
:1027B0005149087049480078401C484908700AE0AF
:1027C0004D4801780078401C4B4A10701E2902DDEC
:1027D000FF2042490870F8E04FF47A7165A0FFF7D6
:1027E00063FDB8B143A0FFF749FE40B10020424964
:1027F00008703A480078401C384908700AE03E48A2
:1028000001780078401C3C4A10701E2902DDFF2030
:1028100032490870D9E003E0D6E020E03EE0C9E0AC
:102820004FF47A7158A0FFF73FFDB8B131A0FFF720
:1028300025FE40B100203049087028480078401C2F
:10284000264908700AE02C4801780078401C2A4A82
:1028500010701E2902DDFF2020490870B5E04FF4FA
:102860007A714CA0FFF720FDB8B14DA0FFF706FE2E
:1028700040B100202049087018480078401C1749D2
:1028800008700AE01C4801780078401C1A4A107051
:10289000052902DDFF201149087096E043F69821D2
:1028A0002046FFF726FDB8B13EA0FFF7E7FD40B197
:1028B000FFF7C3FC002010490870FE20074908708C
:1028C0000AE00D4801780078401C0B4A1070052979
:1028D00002DDFF200149087077E000004000002081
:1028E000000801402B4353513A0000004154453049
:1028F0000D0A00004F4B00004200002041542B43C2
:1029000050494E3F0D0A00002B4350494E3A205289
:10291000454144590000000041542B4353510D0AD6
:10292000000000002B4353513A2039392C3939002B
:10293000B000002041542B43474154543F0D0A003E
:102940002B43474154543A203100000041542B435B
:102950004950534855540D0A00000000534855543F
:10296000204F4B0041542B4349504D4F44453D317E
:102970000D0A000041542B435354543D22434D4E05
:102980004554220D0A00000041542B43494943524B
:102990000D0A000041542B43494653520D0A0000D2
:1029A0002E0000004F4B0D0A0D0A434F4E4E45437B
:1029B000540000000020FC490870FE2010BD0020DB
:1029C000F9490870FF20F9E700BF00BF0020F5E7D4
:1029D00010B50024F448007830B101281ED0022838
:1029E0003ED0FF2861D15BE04FF47A70FFF7FAFC2C
:1029F000FFF71EFD0446022C03D10020EB490870AE
:102A00000BE054B9E94801780078401CE74A10709F
:102A1000022902DD0120E449087047E04FF4FA6121
:102A2000E3A0FFF766FCD0B1AFF23810FFF726FD48
:102A300050B1E049E0A002F0EBFA0020DB49087059
:102A40000220D94908700AE0D84801780078401C73
:102A5000D64A1070052902DDFF20D349087025E011
:102A60004FF47A71D8A0FFF744FCC0B1D8A0FFF7AB
:102A700005FD48B1CF49D0A002F0CAFA0020CB49E9
:102A80000870C94908700AE0C84801780078401CFD
:102A9000C64A1070052902DDFF20C349087005E011
:102AA0000020C1490870FF2010BD00BF00BF0020FA
:102AB000FAE710B5BC480078032844D005DC48B1DB
:102AC000012812D002286DD11DE0042846D0FF282D
:102AD00068D162E0C0480078401CBF490870B24825
:102AE0000078401CB04908705DE0BB4800780228BF
:102AF00003D1FF20AC49087004E0AB480078401CCB
:102B0000A94908704FE04FF4FA61B4A0FFF7CCFB7D
:102B1000C0B1AFF22020FFF7B1FC40B10020A349C3
:102B20000870A1480078401C9F4908700AE09F483F
:102B300001780078401C9D4A1070052902DDFF20B5
:102B4000994908702FE041F28830FFF757FC20B117
:102B500095480078401C9449087024E04FF4FA61CD
:102B6000A1A0FFF7A1FBB8B1AFF27820FFF786FC78
:102B700038B1A0A002F04CFA00208B490870022066
:102B800010BD8A4801780078401C884A10700529D9
:102B900002DDFF208449087005E0002082490870AA
:102BA000FF20EDE700BF00BF0020E9E7F8B50646CB
:102BB0000D4600249448006805287DD006DC0528D1
:102BC0007BD2DFE800F0101B39485B00082875D085
:102BD00004DC062873D007286FD163E109286FD081
:102BE000FF28F9D19FE1FFF787FC30B14FF4FA607D
:102BF000FFF704FC0120844908609EE141F288311E
:102C000082A0FFF751FBB0B1AFF21830FFF736FCEE
:102C100030B100206549087003207B4908600AE054
:102C2000624801780078401C604A10700A2902DD71
:102C3000FF207549086080E1FFF7B7FC0446FE2CD1
:102C400003D103207049086004E0FF2C02D1092061
:102C50006D49086071E13046FFF75DFD0446FE2CCA
:102C600006D100205C49087004206749086004E030
:102C7000FF2C02D10920644908605EE14FF4FA613B
:102C80002846FFF786FB68B362A00068009068469C
:102C9000FFF7F4FBB8B1604846490A6802608A88C9
:102CA00082808979817101205C49087000203F4948
:102CB00008700520544904E015E03AE11EE150E0B7
:102CC00020E108600DE0394801780078401C374A5F
:102CD0001070052905DD00201146087005204A49BD
:102CE000086000BF29E14FF47A714DA0FFF729FB7E
:102CF00038B350A0FFF7C2FBA8B100202B490870E1
:102D0000012080F3138800BF00BF4D48006800F425
:102D1000E0604C490843001D49490860BFF34F8FEC
:102D200000BF00BFFEE701204749087050B147A02F
:102D3000FFF7A4FB30B100201C490870062032497F
:102D400008600DE0194801780078401C174A10709F
:102D5000022905DD00201146087006202A49086076
:102D6000EBE04FF4FA613DA0FFF7EBFAC8B13DA0EC
:102D7000FFF784FBB0B13E480E490A6802604A681A
:102D80004260896881603BA002F042F938493D48C1
:102D900000F0FDF900200549087007201A49086075
:102DA0007FE07EE070E00000400000204200002054
:102DB0002B2B2B00B00000207561727420726563AC
:102DC000763A2025730D0A0041544F0D0A00000089
:102DD000434F4E4E454354004300002041542B4383
:102DE00046554E3D300D0A0041542B4346554E3D4D
:102DF000310D0A00E5868DE5BC80E590AFE58A9F40
:102E0000E883BD5C720A00004800002041540D0AAE
:102E100000000000ACAD0000520000204400002083
:102E200073686F756C642049207265737461727485
:102E3000203F000072657374617274206E6F7700BA
:102E40000CED00E00000FA0532000020646F206EF7
:102E50006F742072657374617274000067657461C9
:102E60006464720041542B414444523D0000000010
:102E70003002002072656376656420616464723A92
:102E800020000000004800402E4801780078401CD7
:102E90002C4A1070052904DD002011460870FF201F
:102EA000F8BD4AE04FF4FA6127A0FFF74AFA20B3D1
:102EB00027A0FFF7E3FA98B1274828490A6802607B
:102EC0004A6842600989018125A002F0A1F82249DF
:102ED000274800F05CF900201A490870FE20DFE75F
:102EE000184801780078401C164A1070052904DD46
:102EF000002011460870FF20D2E71EE000201D4987
:102F000008601AE0FFF7D5FD0446022C02D11949EA
:102F1000086007E0FF2C05D1002017490870FF204A
:102F20001449086009E0002006490870114908604A
:102F300003E000200F49086000BF00BF0D48006893
:102F4000AEE70000420000206765746368656C00AE
:102F500041542B43483D00003D020020B0000020BA
:102F6000726563766564206368656C3A20000000D2
:102F700000480040480000204300002000BF704788
:102F800000BFB44A128802F04002002AF9D0C2B24F
:102F9000B04B1B1D1A80704700B587B0012104207B
:102FA000FDF7A4FF01218803FDF7A0FF4FF4007097
:102FB000ADF8180003208DF81A0018208DF81B00BA
:102FC00006A9A548FDF7B6FC4FF48060ADF81800DF
:102FD00004208DF81B0006A99F48FDF7ABFC2520B7
:102FE0008DF8040000208DF8050001208DF8060002
:102FF0008DF8070001A8FDF7ACF94FF4E13002901D
:103000000020ADF80C00ADF80E00ADF81000ADF8E2
:1030100014000C20ADF8120002A99048FEF71BFF27
:10302000012240F225518D48FEF7ADFF01218B486A
:10303000FEF79DFF07B000BD00B587B00121042059
:10304000FDF754FF01214804FDF75DFF0420ADF8B2
:10305000180018208DF81B0003208DF81A0006A90F
:103060007D48FDF767FC0820ADF8180004208DF8B6
:103070001B0006A97848FDF75DFC4FF4E130029093
:103080000020ADF80C00ADF80E00ADF81000ADF862
:1030900014000C20ADF8120002A97148FEF7DBFE07
:1030A00026208DF8040000208DF8050002208DF800
:1030B000060001208DF8070001A8FDF74AF901225A
:1030C00040F225516648FEF75EFF01216448FEF795
:1030D0004EFF07B000BD00B585B001210820FDF707
:1030E00005FF01218804FDF70EFF4FF40060ADF8E5
:1030F000000004208DF8030069465A48FDF71AFCC9
:103100004FF48060ADF8000003208DF80200182015
:103110008DF8030069465348FDF70CFC4FF4E1308D
:1031200001900020ADF80800ADF80A00ADF80C00E1
:10313000ADF810000C20ADF80E0001A94548FEF7CF
:103140008AFE002240F225514248FEF71CFF012171
:103150004048FEF70CFF05B000BD10B504462146FF
:103160003E48FEF771FF00BF40213C48FEF7DAFF02
:103170000028F9D010BD70B505460E46002403E0C6
:10318000285DFFF7EAFF641CB442F9DB70BD70B53F
:1031900006460C46002500BF615D3046FEF754FF31
:1031A00000BF40213046FEF7BDFF0028F9D06D1C5E
:1031B000605D0028F0D170BD10B504462146284856
:1031C000FEF742FF00BF40212548FEF7ABFF002875
:1031D000F9D010BD70B505460E46002403E0285D09
:1031E000FFF7EAFF641CB442F9DB70BD10B504467A
:1031F00021461848FEF728FF00BF40211548FEF77A
:1032000091FF0028F9D010BD70B505460E46002488
:1032100003E0285DFFF7EAFF641CB442F9DB70BDF0
:1032200010B540F225510E48FEF792FF80B10C48D0
:10323000001D0088C4B22046FEF7ECFF40F2255185
:103240000748FEF7AFFF20210548FEF778FF00BFD3
:1032500010BD000000480040000801400038014057
:1032600000440040000C01401FB5044601210846FF
:10327000FDF749FE04EB4400C0EBC4100121C1EB93
:10328000C00080B2ADF808004720ADF8040000206F
:10329000ADF80A00ADF8060001A94FF08040FDF737
:1032A0005DFF4FF4A060FDF74FF81C208DF8000083
:1032B00001208DF8010000208DF8020001208DF81A
:1032C00003006846FDF745F8012211469007FEF716
:1032D000BCFA01218807FEF79DFA1FBD7FB50546A0
:1032E0000C4601210220FDF70EFEADF80850ADF8A6
:1032F00004400020ADF80A00ADF8060001A93A48E4
:10330000FDF72CFF012211463748FEF79EFA1D20DB
:103310008DF8000000208DF8010003208DF80200D8
:1033200001208DF803006846FDF713F801212E48AF
:10333000FEF770FA7FBD10B501218807FEF733FD57
:1033400028B1FEF785FF01218807FEF73DFD10BD7E
:1033500010B501212448FEF726FD002842D00020A8
:103360000AE02249095C012904D12149095C491C70
:103370001F4A1154411CC8B21E4909788842F0DB2B
:103380001D480068C0431D49C1F8B4011C480078BD
:10339000401C1B4908701B480088132819DB1A4879
:1033A0000088401C1849088018480088401C1749AC
:1033B00008800020134908801448008814490978BF
:1033C00088420BDB00201149088001201149087058
:1033D00004E00C480088401C0A490880012102488A
:1033E000FEF7F2FC10BD0000000400409500002034
:1033F0009C0000206B000020B40122420000224209
:103400005A000020600000206400002062000020BC
:10341000670000206600002008B501210420FDF7A8
:1034200065FD40F20110ADF8000010208DF803009A
:1034300003208DF8020069461348FDF77BFA01214D
:103440001020FDF753FD4FF40050ADF800001020A0
:103450008DF8030003208DF8020069460B48FDF744
:1034600069FA7020ADF8000010208DF803000120EB
:103470008DF8020069460448FDF75CFA70210248A5
:10348000FDF707FB08BD00000008014000100140E7
:103490002DE9F04704460E4617469846DDE9089A9E
:1034A0002078FFF75AFE6078FFF757FE3046FFF7A7
:1034B00054FE7720FFF751FE6F20FFF74EFE72207B
:1034C000FFF74BFE6B20FFF748FE002503E0785D19
:1034D000FFF743FE6D1C0C2DF9DB4046FFF73DFE68
:1034E0004846FFF73AFE5046FFF737FE0020FFF749
:1034F00034FE0020FFF731FEBDE8F0872DE9F041F2
:1035000004460E46174698462078FFF726FE607858
:10351000FFF723FE3046FFF720FE6120FFF71DFE78
:103520006320FFF71AFE6B20FFF717FE6220FFF7FC
:1035300014FE002503E0785DFFF70FFE6D1C0C2DD7
:10354000F9DB4046FFF709FEBDE8F08170B505469E
:103550000C461E21284601F0D5FAF8A1FA48FFF7DB
:1035600016FE002020704FF49670FEF73BFF2946B0
:10357000F648FFF70CFE2946F548FFF708FE1E2126
:10358000284601F0BFFAF3A1EF48FFF700FE002044
:1035900020704FF49670FEF725FF2946EB48FFF7A1
:1035A000F6FD2946EA48FFF7F2FD1E21284601F004
:1035B000A9FAEAA1E448FFF7EAFD002020704FF4E1
:1035C0009670FEF70FFF2946E048FFF7E0FD294619
:1035D000DF48FFF7DCFD1E21284601F093FAE2A147
:1035E000D948FFF7D4FD002020704FF49670FEF705
:1035F000F9FE2946D548FFF7CAFD2946D448FFF70A
:10360000C6FD70BD2DE9FE430746884616461D4699
:103610000020D84908604FF47A70FEF7E3FE0120DD
:10362000D549C1F8A001002400203070D3A0006863
:1036300002906420FEF7D6FE17E000202870D0A18B
:10364000C148FFF7A4FD6420FEF7CCFE0F2C0ADD75
:103650003146BE48FFF79BFD3146CAA001F0D8FCB9
:103660000020BDE8FE83601CC4B2012202A93046DE
:1036700001F065FA0028E0D11E21304601F042FA3F
:103680000024C44903C9CDE9000116E0BBA1AE483E
:10369000FFF77DFD002028706420FEF7A3FE0F2CAD
:1036A00009DD3146A948FFF772FD3146B5A001F0AA
:1036B000AFFC0120D5E7601CC4B203226946304646
:1036C00001F03DFA0028E1D11E21304601F01AFA3E
:1036D000002417E039469C48FFF759FD0020287068
:1036E0004FF4FA70FEF77EFE052C09DD314697484F
:1036F000FFF74DFD3146A3A001F08AFC0220B0E7A0
:10370000601CC4B2A4A1304601F007FA0028E1D041
:103710001E21304601F0F6F9002417E041468A48A0
:10372000FFF735FD002028704FF4FA70FEF75AFEBF
:10373000052C09DD31468548FFF729FD314691A06A
:1037400001F066FC03208CE7601CC4B292A13046F5
:1037500001F0E3F90028E1D090A17B48FFF717FDC5
:103760001E21304601F0CEF96420FEF73BFE5820C2
:1037700077E71CB540F225517348FEF7E9FC0028B5
:1037800079D08A48007890B9894800781E2802DBF1
:103790000020874908706C48FEF75AFC8549844A26
:1037A0001278885482480078401C814908707F480C
:1037B000007801287ED16448FEF74AFCC1B27E48F9
:1037C0007E4A127800EBC2107D4A127881547D48FF
:1037D00000880C286FD2DFE800F0AFAE6E6EADACA3
:1037E0008E55066E6EAB76480078142844D164205E
:1037F000754908707548007875490978884232DA49
:10380000002012E07349095C69B90121714A115421
:103810000021714A1154714908706C490978491C9A
:103820006A4A117005E0411CC8B2694909788842AA
:10383000E8DB00BF6948007800EB4000684901EB15
:1038400080005D495D4A127801EBC21151F8072FE3
:1038500002604A6842608968816065205A49087040
:10386000012060490870554800785F4908700120C0
:103870005E49087005E08CE251480078401C5049D0
:10388000087086E14E48007803281CD158484C49FE
:103890000978405C4849494A127801EBC211484A0C
:1038A0001278895C88420ED10820464908800020A1
:1038B000504901E06EE168E1087041480078401C21
:1038C0003F49087016E04A483D490978405C3A494A
:1038D0003A4A127801EBC211394A1278895C88425F
:1038E00005D137480078401C3549087002E00120B6
:1038F0003E4908704DE130483049097800EBC1106D
:103900002F490978405CAE2809D12C4800783A4903
:1039100008700120394908603449087007E02848D8
:103920000078401C2649087005202649088030E1AF
:10393000CAE065E08BE0E7E0FBE0000041542B418A
:103940004444520D0A000000003801400044004089
:103950000048004041542B43480D0A0041542B5766
:103960004D4F44450D0A000041542B4346475446F1
:103970000D0A0000A0012142000021426100000068
:103980002B2B2B00466565644261636B3A202573DF
:1039900000000000105200084F4B000041542B570C
:1039A0004D4F44453D46500D0A0000009B0000204D
:1039B000A2000020E23900207202002078000020DE
:1039C0007900002072000020920000209A00002060
:1039D0006B000020950000209C0000208C0000203F
:1039E0009C3900209400002076000020A1000020D7
:1039F0006C00002084000020750000208000002062
:103A0000E448E549097800EBC110E4490978405CD5
:103A1000AE2808D10620E2490880E0480078401C22
:103A2000DE49087012E0DD4800787F2809D1DA48C5
:103A30000078DC4908700120DB490860DB49087028
:103A400004E0D6480078401CD4490870A1E0D3486F
:103A50000078032834D1CF48CF49097800EBC11052
:103A6000CE490978405CD2490870D248007800EB12
:103A7000800101EBC000CE49097801EB4000401CF9
:103A8000C44901EBC011C348C34A127800EBC2100D
:103A900000680860C748007800EB800101EBC000B7
:103AA000C349097801EB4000401CBB490870052060
:103AB000BB490880B9480078401CB849087002E04A
:103AC0000120BA49087064E0B4480078022817D190
:103AD000B048B149097800EBC110B0490978405CA1
:103AE000B44908700020B449B24A127888540420BE
:103AF000AB490880A9480078401CA849087002E03A
:103B00000120AA49087044E0A248A349097800EBC3
:103B1000C1104078AD2808D10B20A14908809F48EA
:103B20000078401C9D49087002E001209F49087000
:103B30002FE098489849097800EBC1100078AB282D
:103B400008D101209649088094480078401C934988
:103B5000087019E08F489049097800EBC11000788F
:103B600077280ED19548007895490978884208DA77
:103B700007208B49088089480078401C87490870D5
:103B800002E001208949087003E00120874908709C
:103B900000BF00BF85480078012818D10020804967
:103BA00008807E4908706D207B49087000207949A3
:103BB000794A127801EBC211087000217548764AE3
:103BC000127800EBC21041700020784908707648E6
:103BD0000068012865D100207A4908706D48714954
:103BE000097800EBC11080787749087069486D4901
:103BF000097800EBC110C0787449087074487249A4
:103C0000097810F811007349087071486E490978F5
:103C100000EB410040786F4948706F486A49097865
:103C2000405C6E4908706848007800EB40006C49C1
:103C300001EB800265480378684801786548FFF722
:103C40005DFC00205849086052485649097800EB4D
:103C5000C1108079AF2809D15C4800780D2805D1C2
:103C600002216048584A127881541AE049484D4967
:103C7000097800EBC110C079BF2809D153480078FA
:103C8000182805D1022057494F4A1278885408E075
:103C90004E480078182804D1022152484A4A127826
:103CA00081545148007801286AD15048007865282D
:103CB0004AD138484E49097800EBC110007944498F
:103CC0004C4A127801F8120032484949097800EB51
:103CD000C11040793E49474A127801EB42014870D1
:103CE0002C484349097800EBC11080793A49414A90
:103CF0001278885440480078404909783D4BCDE916
:103D000000101B7803EB4303354C04EB8302324B6A
:103D1000384C2478195D2E4B364C247803EB440044
:103D2000344B1B78FFF7B4FB1A4A314B1B7802EB7C
:103D3000C311304A12781A235A43164B03EBC210B0
:103D4000152200F0C6FE18E02B48007811212C4BFC
:103D5000CDE900101B7803EB4303214C04EB8302F5
:103D60001D4B274C2478195D194B254C247803EB07
:103D70004400234B1B78FFF78BFB00201A49087087
:103D800040F225511F48FEF70DFA20211D48FEF78D
:103D9000D6F91CBD720200207800002079000020B6
:103DA000720000207500002080000020A10000208B
:103DB000770000207A0000209C0000209A0000205C
:103DC0006B000020700000205E0000205F000020DB
:103DD000883900205B0000208D0000205D0000205D
:103DE0009C390020950000209400002092000020C3
:103DF000760000208C0000206A000020690000206E
:103E0000880000200038014000B587B001214FF440
:103E10000170FDF76BF84FF40040FCF7CBFF7F48D3
:103E2000FCF700FB002002908DF80C008DF80D00CF
:103E30004FF4602004900020059001208DF81800B8
:103E400002A97648FCF715FB0120FCF7CFFC012105
:103E50007248FCF73AFB7148FCF759FB00BF6F480A
:103E6000FCF75AFB0028FAD16C48FCF75FFB00BF57
:103E70006A48FCF760FB0028FAD101214FF4816009
:103E8000FDF734F84FF40040FCF794FF0220ADF842
:103E9000040000208DF8070001A96148FCF74AFDE5
:103EA0006048FCF7BFFA002002908DF80C008DF8F6
:103EB0000D004FF4602004900020059001208DF843
:103EC000180002A95748FCF7D4FA01215548FCF71D
:103ED000FCFA5448FCF71BFB00BF5248FCF71CFBE4
:103EE0000028FAD14F48FCF721FB00BF4D48FCF7F2
:103EF00022FB0028FAD107B000BD10B50446072305
:103F0000012221464548FCF74CFB01214348FCF7C0
:103F10001CFB00BF02214148FCF788FC0028F9D0B7
:103F20003E48FCF7A5FB10BD70B50024002509E054
:103F30001020FFF7E2FF204484B20520FEF752FA7A
:103F4000681CC5B20A2DF3DB0A2094FBF0F080B2A6
:103F500070BD2DE9F04107460C460025002608E01B
:103F60003846FFF7CAFF05440520FEF73BFA701CF0
:103F7000C6B2A642F4DBB5FBF4F080B2BDE8F08136
:103F800010B504460723012221462648FCF709FB09
:103F900001212448FCF7D9FA00BF02212148FCF78F
:103FA00045FC0028F9D01F48FCF762FB10BD2DE945
:103FB000F04107460C460025002608E03846FFF78A
:103FC000DFFF05440520FEF70DFA701CC6B2A642BD
:103FD000F4DBB5FBF4F080B2BDE8F0812DE9F047E9
:103FE0008246504600F0C1FE80464FF066320E4BCE
:103FF00000F033FE064600220C4B00F0BCFD0446E8
:1040000000F09AFE84B20A210920FFF7A2FF844241
:1040100002DD0020BDE8F0870120FBE7002401401D
:10402000000C01400028014066661A4000FEAF40C7
:1040300070B505460C4645F25550FCF7C9FD2846BB
:10404000FCF7C9FD2046FCF7C9FDFCF7CAFDFCF7EB
:10405000CDFD70BD10B5FCF7C4FD10BDA0B0FFF7DD
:104060003AF8FFF7D9F9FEF797FFFEF7E5FF0A20C8
:10407000FFF7FAF840F2CF7148F69F40FFF72EF9AC
:10408000FFF7C2FE4FF4A060FCF75EF9FD48FEF7B3
:10409000BDF8FDA2D2E900109268CDE91E021D9183
:1040A000FCA207CA1AAB07C3FDA3D3E90121186814
:1040B000DB68CDE91813CDE91602FD48FD4908601B
:1040C0000120FD4908600020FC490870FC49C1F846
:1040D000A0010A211020FFF73CFFFA4908800920BF
:1040E000FFF74EFFF74948800020159008460088EA
:1040F00000128DF85400084600788DF855000846E7
:10410000408800128DF85600084680788DF85700D8
:10411000042115A8FFF75EF8EBA000F079FF4FF43B
:104120007A610620FFF784FFFFF794FF0120EC4936
:104130000870FCE3EA48007800287DDD012188074B
:10414000FDF768FBE7A000F063FF0020E44908707A
:10415000DA490870E8480088B0F5076F12DD0120E1
:1041600080F3138800BF00BFE448006800F4E060FB
:10417000E3490843001DE1490860BFF34F8F00BFCA
:1041800000BFFEE70020DF490860DF4908706D20AE
:10419000DE4908700020DE490870DE490870DE49FB
:1041A0000870DE490870DE490870DE490870DE4993
:1041B000087000255A20DD4908702D20DC49087060
:1041C0005A20DC4908700220DB4908700320DB49D3
:1041D000087000200FE00021D94A1154D94A115427
:1041E00000EB4001D84A02EB810100220A604A60DC
:1041F0008A60411CC8B2D14909788842EBDB0024AF
:1042000007E0D24901EBC410802100F07BFC601C68
:10421000C4B26E2CF5DBCE48002101608180817133
:104220000121CC48FCF751F90121CB48FCF74DF9AD
:10423000FFF710FF0A2100E060E21020FFF789FE7F
:10424000C649888314210920FFF7B1FEC349C883FA
:10425000A94800884883102216A9C04800F039FCFC
:10426000BE481D9901611E994161BDF87C10018312
:1042700020210DA800F046FC2022B8490DA800F02E
:1042800028FCB648408B00128DF84E00B348807E63
:104290008DF84F00B148808B00128DF85000AF4868
:1042A000007F8DF85100AD48C08B00128DF8520090
:1042B000AA48807F8DF853002822A9A103A800F006
:1042C00008FC0020B0490870B049086019E00DA949
:1042D00003A8FEF76BFCC4B2FE2C04D1ACA000F026
:1042E00097FE01250EE0FF2C04D1ADA000F090FE5A
:1042F000002507E0A4480078282801DCFFF7AAFE83
:1043000000BFE4E700BFAAA000F082FEFFF7A2FE14
:104310004FF49670FEF766F866480068FFF75EFE99
:1043200000287DD06248634908607F4800780128F2
:1043300063D1002001900290854801680191818835
:10434000ADF8081080798DF80A00072101A8FEF762
:1043500041FF9DF80400AC282AD19DF80500AD2846
:1043600026D17B488078714908707948C0787849AF
:104370008978884202DA7648C07801E0744880780B
:104380006B490870724800796A4908707048407932
:10439000694908706E488079002809DD6C48807989
:1043A000062802DA6A48807900E003206349087031
:1043B00000205D4908705D48017883A000F028FE68
:1043C0005B48017884A000F023FE5A48017887A05A
:1043D00000F01EFE584801788AA000F019FE5748E8
:1043E00001788EA000F014FE914992A000F010FE1A
:1043F000954996A000F00CFE00BF6420FDF7F2FF87
:1044000085B90D2296A18A4800F063FB884898A1DF
:104410000A6802604A6842600A890281897A00E07B
:1044200062E18172002456E1FFF714FE934B944A37
:1044300085497F48FFF7E6F8582821D191A0FDF77C
:10444000CCFE95A000F0E4FD8C498D48FFF77EF886
:104450001E218B4800F056FB94A19748FEF797FE6B
:104460000020864908704FF49670FDF7BBFF844921
:104470009248FEF78CFE82498F48FEF788FE2BE1BA
:104480001EE10000B93100085354415254574F52B5
:104490004B00000053544F50574F524B0000000048
:1044A000434F4F5244494E41544F525F30343300D2
:1044B000CDCC5C40A8000020B40122429B0000202B
:1044C00000002142A4000020746865207379737491
:1044D000656D207374617274776F726B0D0A0000E2
:1044E00066000020737461727420776F726B2069AC
:1044F0006E697469616C0000640000200CED00E0DE
:104500000000FA05800000209400002078000020C0
:1045100079000020770000207A0000207B00002036
:104520008C0000209A00002044000020670000203A
:1045300068000020690000206A0000206B00002055
:10454000950000209C0000209C3900207202002071
:1045500052000020002401400028014052020020A7
:1045600041542B43495053544152543D22554450D9
:10457000222C2234372E39372E31312E313430224D
:104580002C363430300D0A005A000020480000203C
:10459000344720737461727420776F726B0D0A0058
:1045A00034472072656376206572726F720D0A005F
:1045B0006361743120737461727420776F726B2041
:1045C0002121210D0A00000074696D655F63796324
:1045D0006C653A25640D0A0074696D655F776F72CA
:1045E0006B5F636F6F723A25640D0A0074696D65C5
:1045F0005F6379636C655F7465726D3A25640D0A5B
:104600000000000074696D655F7265636E745F74AD
:1046100065726D3A25640D0A00000000776F726BB9
:104620005F77696E646F77733A25640D0A00000046
:1046300030020020746869735F6370615F61646455
:10464000723A25730D0A00003D02002074686973F8
:104650005F6370615F6368656C3A25730D0A0000E3
:1046600041542B414444523D34330D0A00000000B4
:1046700041542B43483D34330D0A0000A200002072
:10468000E2390020736574206C6F7261207375636A
:104690006365737300000000736574206C6F726152
:1046A00020737563636573730D0A000041542B45D5
:1046B0004E544D0D0A0000000038014000440040F7
:1046C000DDA0FDF78AFDDCA000F0A2FC601CC4B2F6
:1046D000052C00D100E0A7E600BF0020DB49086000
:1046E0000120DB49087008E0DA48DB490860022055
:1046F000D7490870D948FDF770FD00BFB0E0D84831
:104700000088D8490978884202DD0220D049087023
:10471000FFF7A0FC00249EE0FFF79CFCD248005D60
:10472000062803DAD148005D02287DD104EB44015C
:10473000CF4A02EB810001220C2100F0DCF90A21B2
:104740001020FFF706FCCB4908800A210920FFF75B
:104750002EFCC84948800846008800128DF8540095
:10476000084600788DF855000846408800128DF8FC
:104770005600084680788DF857001A206043BE49DD
:1047800001EBC0101599C0F815101A216143BA4AFF
:1047900002EBC11101F11E00102216A900F099F9D7
:1047A000002544E0A9480068C043B449C1F8B401F9
:1047B000FFF750FC04EB840101EBC40105EB410160
:1047C000AD4A02EBC1108021FEF704FD04EB840129
:1047D00001EBC40105EB4101A74A02EBC1108021A6
:1047E00000F090F9072095FBF0F100FB1150E0B9C3
:1047F0004FF4FA70FDF7F6FD04EB840000EBC40003
:1048000005EB4000401C9C4901EBC010007860B9EA
:1048100004EB840000EBC40005EB4000401C01EBFE
:10482000C010407808B904E013E0681CC5B21A2D26
:10483000B8DB00BF00208D4908559148007800285A
:1048400004DD8F480078401E8D490870002086499D
:104850000855601CC4B28B4800788442FFF65CAFF8
:104860007B48007801283FF44AAF79480078022855
:1048700074D100247EE07D48005D012878D104EBEE
:1048800044017B4A02EB810001220C2100F033F944
:104890000A211020FFF75DFB764908800A210920D4
:1048A000FFF785FB734948801A206043724901EB8A
:1048B000C01070490968C0F815101A2161436E4A8A
:1048C00002EBC11101F11E00102216A900F001F93E
:1048D000002547E05D480068C0436849C1F8B4015D
:1048E000FFF7B8FB04EB840101EBC40105EB4101C8
:1048F000614A02EBC1108021FEF76CFC04EB8401DD
:1049000001EBC40105EB41015B4A02EBC1108021C0
:1049100000F0F8F8072095FBF0F100FB1150F8B912
:104920004FF4FA70FDF75EFD04EB840000E080E0D8
:1049300000EBC40005EB4000401C4F4901EBC010E8
:10494000007868B904EB840000EBC40005EB40007C
:10495000401C01EBC010407810B905E060E007E0B2
:10496000681CC5B21A2DB5DB00BF00203F490855B1
:10497000601CC4B2434800788442FFF67CAF4FF419
:10498000AF70FDF72FFD09211AA8FEF723FC4FF4A5
:10499000AF70FDF727FD01202C49086000203A493F
:1049A000C1F8A00101203949086000203849086099
:1049B000384908706D203849087000203749087060
:1049C0003749087037490870374908703749087007
:1049D0002B49087000BF0DE00021244A115400EB60
:1049E0004001234A02EB810100220A604A608A608A
:1049F000411CC8B2234909788842EDDBFFF72AFB46
:104A000000212B48FBF761FD00212A48FBF75DFDE3
:104A100000214FF08040FCF7FDFE03200C49087098
:104A20000A480068C0431549C1F8B401FFF712FBFA
:104A300030BFFFF77FBB0000736574206C6F72613D
:104A4000206572726F720D0A00000000B4012242EC
:104A50009B0000209A996940A80000209C52000801
:104A600062000020680000209C00002095000020CB
:104A70009C390020A4000020720200200000224285
:104A80009A0000206B00002000002142800121429A
:104A90008000002094000020780000207900002091
:104AA000770000207A0000207B0000208C0000208E
:104AB0000024014000280140704700BFFEE700BF0E
:104AC000FEE700BFFEE700BFFEE770477047704794
:104AD000704740EA01039B0703D009E008C9121F91
:104AE00008C0042AFAD203E011F8013B00F8013BA8
:104AF000521EF9D27047D2B201E000F8012B491ED4
:104B0000FBD270470022F6E710B513460A4604466A
:104B10001946FFF7F0FF204610BD30B505462A467E
:104B20000B4612F8010B13F8014B08B1A042F8D064
:104B30001CB1002802D06D1CF1E7284630BD30B50D
:104B400005460020034600E05B1C934205D2EC5C66
:104B5000C85C201A01D1002CF6D130BD70B50646D4
:104B600000F066FA046805460A220021304600F08B
:104B700035F92C6070BD2DE9FE4F81EA030404F085
:104B8000004421F0004100944FF0000B23F000435B
:104B900050EA01045ED052EA03045BD0C3F30A5426
:104BA000C1F30A552C44A4F2F3340194A0FB02543F
:104BB000C1F3130141F48011C3F3130343F48013D1
:104BC00001FB024400FB034E840A970A44EA815425
:104BD00047EA8357A4FB076802958D0A05FB078502
:104BE0004FEA932C04FB0C542705029D4FEA06580C
:104BF00047EA1637B5EB08056EEB070C870E920EE9
:104C000047EA811742EA8312A7FB0201B6EB0B01C8
:104C100064EB00042B0D43EA0C335E1844EB1C508C
:104C2000DA465146E7FB0201C5F313044FEA0B33A2
:104C300043EA14534FEA0432019C43EA0603A4F109
:104C40000C040294009CCDE900B400F00EF903B00E
:104C5000BDE8F08F00200146F9E72DE9F04D81EA2B
:104C6000030404F0004B21F0004514464FF0000A05
:104C700023F0004150EA050220D054EA01021DD081
:104C8000C5F30A570246C5F31303C1F31300C1F37A
:104C90000A5640F4801543F48013A7EB0608101B56
:104CA000D64608F2FD3873EB050002D308F101087F
:104CB00001E092185B41B8F1000F03DA00200146D1
:104CC000BDE8F08D00204FF48011064684460EE0CA
:104CD000171B73EB050705D3121B63EB0503064394
:104CE0004CEA010C49084FEA300092185B4150EA47
:104CF0000107EDD152EA030012D082EA040083EAF0
:104D00000501084305D0101BAB4106D20122002348
:104D100006E000224FF0004302E06FF00102531062
:104D20001AEB06004CEB085110EB0A0041EB0B01AB
:104D3000BDE8F04D00F08AB8C1F30A5210B5C1F3D6
:104D4000130140F2FF3341F480119A4201DA00204E
:104D500010BD40F233439A42A2F2334203DC524286
:104D600000F02CF810BD904010BD00F0004230F073
:104D700000400AD0C10D01F56071C0F3160042EA8F
:104D80000151C20840071143704700200146704797
:104D900030B50B46014600202022012409E021FA0B
:104DA00002F59D4205D303FA02F5491B04FA02F508
:104DB0002844151EA2F10102F1DC30BD202A04DBDB
:104DC000203A21FA02F00021704721FA02F3D04084
:104DD000C2F1200291400843194670472DE9F0477F
:104DE00091460F4680460446002614F8015B2DB11B
:104DF00000F0ACF80068405DC007F6D12B2D02D062
:104E00002D2D18D0641E4A463946204600F0A2F8DF
:104E100027B13968A14201D1C7F8008071054FF070
:104E200002040BD54042002803DD00F001F90460C4
:104E3000A007BDE8F08746F48066E4E70028F8DACA
:104E400000F0F6F804606FF00040F2E710B5141EB1
:104E500073F1000408DA401C41F1000192185B4133
:104E60001A4301D120F0010010BD2DE9F04D92460A
:104E70009B4611B1B1FA81F202E0B0FA80F2203221
:104E8000904600F053F804460F4640EA0A0041EA13
:104E90000B0153465A46084313D0114653EA01000A
:104EA00019D0C8F140025046FFF788FF05460E466C
:104EB00050465946424600F039F8084305D00120D3
:104EC00004E020463946BDE8F08D0020054346EA5F
:104ED000E0762C4337430A986305E40AA0EB080008
:104EE0000022FD0A44EA47540A3002D50020014658
:104EF000E9E7010510196941DDE908450019694133
:104F0000BDE8F04DA2E70000064C074D06E0E06862
:104F100040F0010394E8070098471034AC42F6D300
:104F2000FBF70AF9E052000800530008202A04DBCE
:104F3000203A00FA02F1002070479140C2F12003AC
:104F400020FA03F31943904070470000004870476F
:104F5000985200082DE9F05F824600780027154638
:104F60008B460AF10104B946302801D09DB113E007
:104F700014F8010B0127782803D0582801D045B137
:104F80000AE00DB1102D07D10027102514F8010BF0
:104F900002E0082500E00A250026B0460EE005FBE9
:104FA000080005FB06F1012701EB10461FFA80F807
:104FB000B6F5803F00D3B94614F8010B294600F03E
:104FC00018F80028EBDABBF1000F05D00FB1641E12
:104FD00000E05446CBF80040B9F1000F06D000F0D5
:104FE00027F802210160C81EBDE8F09F48EA06408C
:104FF000FAE73A2800D2303820F02002412A01D3C3
:10500000A2F13700884201D34FF0FF307047000013
:105010000FB4054B10B503A9044A029800F01CF820
:1050200010BC5DF814FB0000812F00084C0000202C
:1050300000487047AC00002002E008C8121F08C1F9
:10504000002AFAD170477047002001E001C1121F09
:10505000002AFBD1704700002DE9FF4F8BB09A4624
:105060000F460546002606E025280BD052460D992E
:1050700090476D1C761C28780028F5D10FB030467B
:10508000BDE8F08F0024A0460122604900E00443FF
:1050900015F8013F203B02FA03F00842F7D12878C7
:1050A0002E2817D115F8010F44F004042A280ED039
:1050B0006FF02F022878A0F1300109290AD808EBF7
:1050C000880102EB410100EB01086D1CF2E757F883
:1050D000048B6D1C287869283ED006DC0028CDD0D2
:1050E00063280BD0642804D136E0732810D07528CB
:1050F0004BD052460D999047761C85E017F8040B6B
:105100008DF8000000208DF80100E946012003E041
:1051100057F8049B4FF0FF3061074FF0000401D4B3
:105120000AE0641C44450DDA8442FADB19F80410E5
:105130000029F6D106E0641C8442FCDB19F8041057
:105140000029F8D1264404E019F8010B52460D99C4
:105150009047641EF8D257E001CF4FF00A0B0028A9
:1051600002DA40422D2102E0210504D52B218DF8E1
:105170002410012103E0E10705D02021F7E70DF11C
:10518000200908910CE00021F9E701CF4FF00A0B4C
:10519000F9E75946FFF7FCFD01F1300209F8012D4E
:1051A0000028F6D1ADEB090000F1200B600701D417
:1051B0004FF00108D84502DDA8EB0B0000E000200D
:1051C0008046002406E009A85246005D0D999047EC
:1051D000641C761C08988442F5DB04E030205246BB
:1051E0000D999047761CB8F10001A8F10108F5DC93
:1051F00005E019F8010B52460D999047761CBBF15A
:105200000001ABF1010BF4DC6D1C34E7092801004F
:105210002B4F4B0000004040404040404040404148
:10522000414141414040404040404040404040407A
:1052300040404040404005020202020202020202D7
:105240000202020202022020202020202020202012
:1052500002020202020202909090909090101010B0
:10526000101010101010101010101010101010103E
:1052700010020202020202888888888888080808CA
:10528000080808080808080808080808080808089E
:10529000080202020240000016520008566F6C74A9
:1052A00061676520697320746F6F206C6F7720745D
:1052B0006F20776F726B2C736F2069206861766541
:1052C00020746F20736C65657020616E6420776157
:1052D000697420666F72206368617267656400009C
:1052E0000053000800000020B00000003850000803
:1052F000B0530008B00000205041000048500008A2
:1053000000A24A04000000000000000001020304A3
:10531000060708090000000001020304010203045B
:105320000607080902040608D92100080000000049
:10533000000000000000000000000000000000006D
:10534000000000000000000000000000000000005D
:10535000000000000000000000000001020000004A
:10536000000000000000005A2D5A020377616B65AF
:10537000000000000000000000000000000000002D
:105380000000000000000000040000000000000019
:105390000000000C00000000000000000000000001
:1053A0000000000000000000CDCC5C4000000000C8
:0400000508000131BD
:00000001FF
